:0300000002027C7D
:0C027C00787FE4F6D8FD7581200202C3F3
:10040C00D3EF9400EE940040147D0B7C00ED1D7036
:0D041C00011CED4C70F7EF1F70E61E80E331
:0104290022B0
:0F0455001204447F027E0012040C12030880FB85
:03001B0002039E3F
:10039E00C0E0C0F0C083C082C0D075D000C000C025
:1003AE0001C002C003C004C005C006C007C2AF1220
:1003BE0001B5D2AFD007D006D005D004D003D002FD
:0F03CE00D001D000D0D0D082D083D0F0D0E03298
:10000300020AFA9A0208FA9A020C0019C182C10084
:02001300C10129
:1004440053890F438910D28ED2ABD2AFC290C291DE
:010454002285
:10042A00750AFA750B9A7508FA75099AD2012001AC
:0A043A00FDC28CC2A9C290C291223B
:1000EC00ED14602214600F14601424037018750C46
:1000FC0000750D0A8016750C00750D32800E750C8E
:10010C0000750D7D8006750C00750D19EFB4070098
:10011C0040030201A8900128F828287302013D022F
:10012C00013F02014E02016802017B02018A0201B9
:10013C00958069C37493950DF50B74FA950CF50ABB
:10014C008020E50D24A8F50BE50C34FAF50AC374F0
:10015C00A1950DF50974FA950CF50822750AFA7536
:10016C000B9AE50D249AF509E50C34FAF50822C32F
:10017C00749A950DF50B74FA950CF50A8024E50D1F
:10018C00249AFFE50C34FA800AC3749A950DFF7417
:10019C00FA950CF50A8F0BF5088F0922750AFA757A
:0901AC000B9A7508FA75099A22F4
:1001B50030026220000CD291D200E50AF58D850B44
:1001C5008B22C200C291AE0AAF0BAB07AA06E4C3ED
:1001D5009BFF74DC9AFE74019400FDE49400FCE43A
:1001E500FB7A01F9F812035A8F8DAE0AAF0BAB07F4
:1001F500AA06E4C39BFF74DC9AFE74019400FDE437
:100205009400FCE4FB7A01F9F812035AAF038F8BD3
:10021500C202D2012220000CD290D200E508F58D51
:1002250085098B22C290C200AE08AF09AB07AA06AA
:10023500E4C39BFF74DC9AFE74019400FDE4940012
:10024500FCE4FB7A01F9F812035A8F8DAE08AF0969
:10025500AB07AA06E4C39BFF74DC9AFE7401940005
:10026500FDE49400FCE4FB7A01F9F812035AAF03AC
:070275008F8BD202C20122AF
:1003080020831F20861CA284308501B34002803AD6
:100318002085093084067D037F0480327D037F03B6
:10032800802C3086047F0180027F002083047E01B8
:1003380080027E00EE5F60067D037F0580103083BB
:10034800092086067D037F0680047D037F01120055
:02035800EC2295
:0D0464005389F0438901D28CD2ABD2AF2274
:1003DD00AFA0E4FE740E2EF8C000E6FDEFA80608EF
:1003ED008003A2E713D8FB54014DD000F6740E2EF6
:0E03FD00F8E66006EE0425E0FF220EBE05D6EF
:01040B0022CE
:10028800020455E493A3F8E493A34003F68001F233
:1002980008DFF48029E493A3F85407240CC8C33377
:1002A800C4540F4420C8834004F456800146F6DF46
:1002B800E4800B0102040810204080900003E47ED3
:1002C800019360BCA3FF543F30E509541FFEE4933B
:1002D800A360010ECF54C025E060A840B8E493A302
:1002E800FAE493A3F8E493A3C8C582C8CAC583CA2D
:1002F800F0A3C8C582C8CAC583CADFE9DEE780BEE5
:0100150000EA
:10035A00C2D5E830E70FB2D5E4C39BFBE49AFAE4CE
:10036A0099F9E498F8EC30E717B2D5120390120025
:10037A005AE4C39BFBE49AFAE499F9E498F88003F7
:10038A0012005A30D50DE4C39FFFE49EFEE49DFDA2
:04039A00E49CFC22C1
:10001E0075F008758200EF2FFFEE33FECD33CDCC99
:10002E0033CCC58233C5829BED9AEC99E58298401C
:10003E000CF582EE9BFEED9AFDEC99FC0FD5F0D6F9
:10004E00E4CEFBE4CDFAE4CCF9A88222B800C1B923
:10005E000059BA002DEC8BF084CFCECDFCE5F0CB61
:10006E00F97818EF2FFFEE33FEED33FDEC33FCEB9A
:10007E0033FB10D703994004EB99FB0FD8E5E4F955
:10008E00FA227818EF2FFFEE33FEED33FDEC33FC42
:10009E00C933C910D7059BE99A4007EC9BFCE99A36
:1000AE00F90FD8E0E4C9FAE4CCFB2275F010EF2F7B
:1000BE00FFEE33FEED33FDCC33CCC833C810D7077B
:1000CE009BEC9AE899400AED9BFDEC9AFCE899F8B6
:0E00DE000FD5F0DAE4CDFBE4CCFAE4C8F92249
:00000001FF
