:03000000020346B2
:0C034600787FE4F6D8FD75812202038D5B
:02053700C103FE
:10055800D3EF9400EE940040147D6E7C00ED1D7086
:0D056800011CED4C70F7EF1F70E61E80E3E4
:010575002263
:100590007F027E0012055812000E7F027E001205B7
:0905A00058850D1D850E1E80FE1C
:03001B000204F8E4
:1004F800C0E0C0F0C083C082C0D075D000C000C0CA
:1005080001C002C003C004C005C006C007C2AF12C4
:10051800027FD2AFD007D006D005D004D003D002D6
:0F052800D001D000D0D0D082D083D0F0D0E0323C
:03000B000200EC04
:1000EC00C0E0C0F0C083C082C0D075D000C000C0DA
:1000FC0001C002C003C004C005C006C007C2AF30B7
:10010C00033BC203D292AE0FAF10AB07AA06E4C3F7
:10011C009BFFE49AFE74019400FDE49400FCE4FB64
:10012C007A01F9F81204718F8CAE0FAF10AB07AADD
:10013C0006C374F69BFF74FF9AFEE4803CD203C2A4
:10014C0092E51024ADFFE50F3447FAE4C39FFFE4BA
:10015C009AFE74019400FDE49400FCE4FB7A01F92E
:10016C00F81204718F8CE51024ADFFE50F3447FABB
:10017C00E4C39FFFE49AFE74019400FDE49400FC38
:10018C00E4FB7A01F9F8120471AF038F8AD2AFD075
:10019C0007D006D005D004D003D002D001D000D0B7
:0A01AC00D0D082D083D0F0D0E03232
:100539000219FA9A0217FA9A021B0019C182C1001C
:02054900C101EE
:1005A90053890F438910D28ED2ABD2AFC290C29178
:0105B900221F
:100576007519FA751A9A7517FA75189AD201200123
:0A058600FDC28CC2A9C290C29122EE
:1001B600ED14602214600F14601424037018751B6C
:1001C60000751C0A8016751B00751C32800E751B87
:1001D60000751C7D8006751B00751C19EFB40700A1
:1001E60040030202729001F2F82828730202070205
:1001F60002090202180202320202450202540202F7
:100206005F8069C37493951CF51A74FA951BF519EA
:100216008020E51C24A8F51AE51B34FAF519C374E9
:10022600A1951CF51874FA951BF517227519FA7520
:100236001A9AE51C249AF518E51B34FAF51722C319
:10024600749A951CF51A74FA951BF5198024E51C09
:10025600249AFFE51B34FA800AC3749A951CFF742E
:10026600FA951BF5198F1AF5178F18227519FA7555
:090276001A9A7517FA75189A22FC
:10027F0030026220000CD291D200E519F58D851A5B
:10028F008B22C200C291AE19AF1AAB07AA06E4C304
:10029F009BFF74DC9AFE74019400FDE49400FCE46F
:1002AF00FB7A01F9F81204718F8DAE19AF1AAB07F3
:1002BF00AA06E4C39BFF74DC9AFE74019400FDE46C
:1002CF009400FCE4FB7A01F9F8120471AF038F8BF1
:1002DF00C202D2012220000CD290D200E517F58D78
:1002EF0085188B22C290C200AE17AF18AB07AA06B3
:1002FF00E4C39BFF74DC9AFE74019400FDE4940048
:10030F00FCE4FB7A01F9F81204718F8DAE17AF1868
:10031F00AB07AA06E4C39BFF74DC9AFE740194003A
:10032F00FDE49400FCE4FB7A01F9F8120471AF03C9
:07033F008F8BD202C20122E4
:1003D20020831F20861CA284308501B34002803A0C
:1003E2002085093084067D037F0480327D037F03EC
:1003F200802C3086047F0180027F002083047E01EE
:1004020080027E00EE5F60067D037F0580103083F0
:10041200092086067D037F0680047D037F01120189
:02042200B62200
:0C054B000A0D06AA06280416037100021F
:1004B500AFA0E4FE74082EF8C000E6FDEFA806081C
:1004C5008003A2E713D8FB20E0047C0180027C00B6
:1004D500ED4CD000F674082EF8E6600EEE25E0240B
:1004E5000DF8E6FC08E6AE04FF220EBE05C67E0446
:0204F5007F1670
:0104F70022E2
:0D000E005389F0438901D28CD2A9D2AF22D0
:100424008E218F22A2049292AB07AA06E4C39BFFFB
:10043400E49AFE74019400FDE49400FCE4FB7A0168
:10044400F9F81204718F8CAE21AF22AB07AA06E42F
:10045400C39BFFE49AFE74019400FDE49400FCE461
:0D046400FB7A01F9F8120471AF038F8A22B0
:10035200020590E493A3F8E493A34003F68001F22C
:1003620008DFF48029E493A3F85407240CC8C333AC
:10037200C4540F4420C8834004F456800146F6DF7B
:10038200E4800B0102040810204080900537E47ECF
:10039200019360BCA3FF543F30E509541FFEE49370
:1003A200A360010ECF54C025E060A840B8E493A337
:1003B200FAE493A3F8E493A3C8C582C8CAC583CA62
:1003C200F0A3C8C582C8CAC583CADFE9DEE780BE1A
:0105570000A3
:10047100C2D5E830E70FB2D5E4C39BFBE49AFAE4B6
:1004810099F9E498F8EC30E717B2D51204A71200F5
:100491005AE4C39BFBE49AFAE499F9E498F88003DF
:1004A10012005A30D50DE4C39FFFE49EFEE49DFD8A
:0404B100E49CFC22A9
:10001E0075F008758200EF2FFFEE33FECD33CDCC99
:10002E0033CCC58233C5829BED9AEC99E58298401C
:10003E000CF582EE9BFEED9AFDEC99FC0FD5F0D6F9
:10004E00E4CEFBE4CDFAE4CCF9A88222B800C1B923
:10005E000059BA002DEC8BF084CFCECDFCE5F0CB61
:10006E00F97818EF2FFFEE33FEED33FDEC33FCEB9A
:10007E0033FB10D703994004EB99FB0FD8E5E4F955
:10008E00FA227818EF2FFFEE33FEED33FDEC33FC42
:10009E00C933C910D7059BE99A4007EC9BFCE99A36
:1000AE00F90FD8E0E4C9FAE4CCFB2275F010EF2F7B
:1000BE00FFEE33FEED33FDCC33CCC833C810D7077B
:1000CE009BEC9AE899400AED9BFDEC9AFCE899F8B6
:0E00DE000FD5F0DAE4CDFBE4CCFAE4C8F92249
:00000001FF
